S011000055534152545F4144432E737265635D
S11300000C9434000C94B7000C9446000C944600F5
S11300100C9446000C9446000C9446000C94460044
S11300200C9446000C9446000C9446000C94460034
S11300300C9446000C9446000C9446000C94460024
S11300400C9446000C9446000C9446000C94460014
S11300500C9446000C9446000C9446000C94460004
S11300600C9446000C94460011241FBECFEFD8E038
S1130070DEBFCDBF21E0A0E0B1E001C01D92A03100
S1130080B207E1F70E945C000C9470010C9400002C
S11300909091C00095FFFCCF8093C6000895CF9344
S11300A0DF93EC0103C00E944800219688818111EE
S11300B0FACFDF91CF91089584B1806284B98AB177
S11300C082608AB98AB18E7F8AB91092C00088E9A9
S11300D08093C10086E08093C20087E690E090930D
S11300E0C5008093C400F8948BEF8AB9E9E6F0E088
S11300F080818160808380818D7F80838DB38160E6
S11301008DBB78948BB182608BB925E32A95F1F786
S113011000008BB18D7F8BB9809104019091050112
S113012064E873E00E940801CB01709301016093BD
S113013000014AE050E066E071E00E943001E6E030
S1130140F1E001900020E9F731978EE790E0918388
S1130150808386E091E00E944F008FEF91EE24E0CF
S1130160815090402040E1F700C00000CBCF1F92A7
S11301700F920FB60F9211248F939F93EF93FF93D7
S1130180E0E8F0E080818E7F808380818D7F8083B2
S1130190E1E8F0E08081877F808380818F7E8083A7
S11301A08091020190910301019771F4E4E8F0E079
S11301B080819181909305018093040111821082C2
S11301C010920301109202018091020190910301A7
S11301D0892BA9F41092850010928400E1E8F0E0E4
S11301E080818160808380818D7F808380818B7F0B
S11301F0808381E090E09093030180930201FF915A
S1130200EF919F918F910F900FBE0F901F901895B3
S113021097FB072E16F4009407D077FD09D00E94AF
S11302201C0107FC05D03EF4909581959F4F0895DD
S1130230709561957F4F0895AA1BBB1B51E107C0C0
S1130240AA1FBB1FA617B70710F0A61BB70B881F62
S1130250991F5A95A9F780959095BC01CD010895F1
S11302604532510520F4423010F00C943B01FB015F
S11302701082CB010895BB274A3031F4992322F42C
S1130280BDE2909581959F4F0C944701BB27FB01DC
S11302905527AA27880F991FAA1FA41710F0A41B7B
S11302A083955051B9F7A05DAA3308F0A95DA193D5
S11302B0009779F7B111B1931192CB010C946001BD
S11302C0DC01FC01672F71917723E1F7329704C0B9
S11302D07C916D9370836291AE17BF07C8F3089544
S10702E0F894FFCFBC
S9030000FC
